{
  "contractName": "myContract",
  "abi": [
    {
      "constant": true,
      "inputs": [
        {
          "name": "",
          "type": "address"
        }
      ],
      "name": "balances",
      "outputs": [
        {
          "name": "",
          "type": "uint256"
        }
      ],
      "payable": false,
      "stateMutability": "view",
      "type": "function"
    },
    {
      "constant": true,
      "inputs": [],
      "name": "fee",
      "outputs": [
        {
          "name": "",
          "type": "uint256"
        }
      ],
      "payable": false,
      "stateMutability": "view",
      "type": "function"
    },
    {
      "constant": true,
      "inputs": [],
      "name": "receiver",
      "outputs": [
        {
          "name": "",
          "type": "address"
        }
      ],
      "payable": false,
      "stateMutability": "view",
      "type": "function"
    },
    {
      "inputs": [
        {
          "name": "_receiver",
          "type": "address"
        },
        {
          "name": "_fee",
          "type": "uint256"
        }
      ],
      "payable": false,
      "stateMutability": "nonpayable",
      "type": "constructor"
    },
    {
      "anonymous": false,
      "inputs": [
        {
          "indexed": false,
          "name": "from",
          "type": "address"
        },
        {
          "indexed": false,
          "name": "to",
          "type": "address"
        },
        {
          "indexed": false,
          "name": "price",
          "type": "uint256"
        },
        {
          "indexed": false,
          "name": "sent",
          "type": "bool"
        }
      ],
      "name": "Sent",
      "type": "event"
    },
    {
      "constant": true,
      "inputs": [],
      "name": "getReceiverBalance",
      "outputs": [
        {
          "name": "",
          "type": "uint256"
        }
      ],
      "payable": false,
      "stateMutability": "view",
      "type": "function"
    },
    {
      "constant": true,
      "inputs": [],
      "name": "getSenderBalance",
      "outputs": [
        {
          "name": "",
          "type": "uint256"
        }
      ],
      "payable": false,
      "stateMutability": "view",
      "type": "function"
    },
    {
      "constant": false,
      "inputs": [],
      "name": "sendTrx",
      "outputs": [],
      "payable": true,
      "stateMutability": "payable",
      "type": "function"
    }
  ],
  "bytecode": "0x608060405234801561001057600080fd5b5060405160408061030e8339810180604052604081101561003057600080fd5b50805160209091015160018054600160a060020a03909316600160a060020a0319909316929092179091556000556102a18061006d6000396000f3fe6080604052600436106100775763ffffffff7c010000000000000000000000000000000000000000000000000000000060003504166310fb7bc6811461007c57806327e235e3146100a3578063d0f452dd146100e3578063ddca3f43146100ed578063f7260d3e14610102578063ff18253b14610140575b600080fd5b34801561008857600080fd5b50610091610155565b60408051918252519081900360200190f35b3480156100af57600080fd5b50610091600480360360208110156100c657600080fd5b503573ffffffffffffffffffffffffffffffffffffffff16610172565b6100eb610184565b005b3480156100f957600080fd5b5061009161024e565b34801561010e57600080fd5b50610117610254565b6040805173ffffffffffffffffffffffffffffffffffffffff9092168252519081900360200190f35b34801561014c57600080fd5b50610091610270565b60015473ffffffffffffffffffffffffffffffffffffffff163190565b60026020526000908152604090205481565b6000805460015460405160643490930292909204929173ffffffffffffffffffffffffffffffffffffffff909116906108fc84150290849084818181858888f16001805473ffffffffffffffffffffffffffffffffffffffff90811660009081526002602090815260409182902080548c01905592548151338152921692820192909252808201899052821515606082015290519196507f4a7ca93981c43b6021cfef8fa7764ad1a6abd748f97622b8fc50d887bf603c6495508190036080019350915050a15050565b60005481565b60015473ffffffffffffffffffffffffffffffffffffffff1681565b33319056fea165627a7a72305820efc663ba77b17e4c76d90478a50fc8b2747ad9a1bb8c4baf76e6d23545219b630029",
  "source": "// SPDX-License-Identifier: MIT\r\npragma solidity >=0.4.22 <0.9.0;\r\n\r\ncontract myContract{\r\n    // string public data;\r\n    //  function set(string memory _data) public{\r\n    //    data=_data;\r\n    //    //mapping \r\n    //  } \r\n\r\n     \r\n    uint public fee;\r\n \r\n    address payable public receiver;\r\n    // we can access the sender just by msg.sender\r\n\r\n    mapping (address => uint) public balances;\r\n   \r\n    event Sent(address from, address payable to, uint price, bool sent);\r\n\r\n    constructor(address payable _receiver, uint _fee) public {\r\n        receiver = _receiver;\r\n        fee = _fee;\r\n    }\r\n// address of reciever \r\n    function getReceiverBalance() public view returns(uint) {\r\n        return receiver.balance;\r\n    }\r\n// address of sender \r\n    function getSenderBalance() public view returns(uint) {\r\n        return msg.sender.balance;\r\n    }\r\n\r\n    function sendTrx() public payable {\r\n        uint value = msg.value * fee / 100;\r\n        bool sent = receiver.send(value);\r\n        balances[receiver] += (value);\r\n        emit Sent(msg.sender, receiver, value, sent);\r\n    }\r\n//msg.sender is always the address where the current (external) function call came from.\r\n//msg.value — The amount of wei sent with a message to a contract (wei is a denomination of ETH)->price in our case  \r\n\r\n\r\n}\r\n\r\n\r\n\r\n\r\n",
  "sourcePath": "C:/Users/dell/Desktop/blockchain/my-smart-contract/contracts/myContract.sol",
  "compiler": {
    "name": "solc",
    "version": "0.5.0+commit.1d4f565a.Emscripten.clang"
  },
  "schemaVersion": "3.0.1",
  "updatedAt": "2021-12-31T13:23:37.444Z",
  "devdoc": {
    "methods": {}
  },
  "userdoc": {
    "methods": {}
  }
}